:020000040800F2
:100000000000012091050008E1050008E105000855
:10001000E1050008E1050008E10500080000000016
:10002000000000000000000000000000E1050008E2
:10003000E105000800000000E1050008E1050008F6
:1000400000000000E1050008E1050008E1050008E6
:10005000E1050008E1050008E1050008E1050008E8
:10006000E1050008E1050008E105000800000000C6
:100070000000000000000000000000000000000080
:100080000000000000000000E10500080000000082
:10009000000000000000000000000000E105000872
:1000A000E1050008E1050008E1050008E105000898
:1000B00011040008E105000800000000E105000847
:1000C000E1050008E1050008E1050008E105000878
:1000D000E105000800000000000000000000000032
:1000E000E1050008E1050008E10500080000000046
:1000F0000000000000000000000000000000000000
:1001000000000000E105000800000000E105000813
:1001100000000000000000000000000000000000DF
:1001200000000000000000000000000000000000CF
:1001300000000000000000000000000000000000BF
:10014000000000000000000000000000E1050008C1
:10015000000000000000000000000000000000009F
:10016000E1050008E10500080000000000000000B3
:10017000000000000000000000000000000000007F
:1001800000000000E1050008000000000000000081
:04019000E10500087D
:1001940010B5054C237833B9044B13B10448AFF3BD
:1001A40000800123237010BD08000020000000001F
:1001B4002C06000808B5034B1BB103490348AFF3F1
:1001C400008008BD000000000C0000202C06000880
:1001D40080B483B000AF0346FB71FB7903F01F02C8
:1001E400074997F907305B09012000FA02F241F848
:1001F400232000BF0C37BD465DF8047B704700BF69
:1002040000E100E080B400AF104B1B6C0F4A43F0D8
:10021400010313644FF0804340F23F621A854FF0AC
:1002240080436422DA624FF0804300225A624FF026
:1002340080431B889BB24FF0804243F001039BB282
:10024400138000BFBD465DF8047B70470038024050
:1002540080B500AF4FF080439B899BB24FF0804242
:1002640043F001039BB293811C20FFF7B1FF00BF51
:1002740080BD80B500AF00F05BF800BF80BD00001A
:1002840080B400AF0D4BD3ED007A9FED0D7AF4EE00
:10029400C77AF1EE10FA06DD0A4B5B69094A43F0AE
:1002A4002003536105E0074B5B69064A23F02003F2
:1002B400536100BFBD465DF8047B704724000020F5
:1002C400000061440000024080B500AF034B044AC3
:1002D4001A6000F007F800BF80BD00BF4400002092
:1002E4000000C84280B582B000AF0023FB7112E069
:1002F400FB790D4A52F82330002B09D0FB790A4AC6
:1003040052F82330094AD2ED007AB0EE670A9847D2
:10031400FB790133FB71FB79042BE9D900BF00BFE2
:100324000837BD4680BD00BF3000002044000020D7
:1003340080B500AF0D4B1B68002B05D00C4B1B6820
:10034400002B01D1FFF7C0FF094B1B680133084A9A
:100354001360074B1B68074A126893FBF2F102FB18
:1003640001F29B1A024A136000BF80BD0000002006
:100374002C0000200400002080B400AF034B0122B5
:100384001A6000BFBD465DF8047B70470000002082
:1003940080B483B000AF78607B68074A82FB0312A5
:1003A4005211DB17D31A054A136000BF0C37BD4640
:1003B4005DF8047B704700BF1F85EB5104000020EB
:1003C40080B500AF0F4B1B6B0E4A43F00103136360
:1003D4000D4B1B680C4A43F4806313600A4B1B6883
:1003E400094A23F400631360FFF70CFFFFF730FFA3
:1003F4004FF4FA70FFF7CCFFFFF7BEFFFFF740FFA3
:10040400FCE700BF003802400000024080B500AFA6
:100414004FF080431B8A9BB24FF0804223F00103CC
:100424009BB21382FFF725FF00BF80BD80B500AFEC
:10043400164BD3F88830154A43F47003C2F8883059
:10044400134B1B68124A43F001031360104B002244
:100454009A600F4B1B680E4A23F0847323F4803395
:1004640013600B4B0B4A5A60094B1B68084A23F470
:1004740080231360064B0022DA6000F00DF8034B72
:100484004FF000629A6000BF80BD00BF00ED00E045
:10049400003802401030002480B483B000AF002341
:1004A4007B6000233B60354B1B68344A43F4803344
:1004B4001360324B1B6803F400333B607B680133E9
:1004C4007B603B68002B03D17B68B3F5A04FF0D170
:1004D4002A4B1B6803F40033002B02D001233B603A
:1004E40001E000233B603B68012B40D1234B1B6C94
:1004F400224A43F080531364214B1B68204A43F47F
:10050400404313601D4B1D4A9B6893601B4B1B4A61
:100514009B689360194B9B68184A43F4805393601B
:10052400164B184A5A60154B1B68144A43F08073E3
:10053400136000BF114B1B6803F00073002BF9D04C
:10054400114B40F202721A600C4B9B680B4A23F069
:1005540003039360094B9B68084A43F002039360CA
:1005640000BF064B9B6803F00C03082BF9D100BFB6
:100574000C37BD465DF8047B704700BF003802406D
:100584000070004019544107003C02400D48854664
:100594000D480E490E4A002302E0D458C4500433D7
:1005A400C4188C42F9D30B4A0B4C002301E01360AE
:1005B4000432A242FBD3FFF739FF00F011F8FFF732
:1005C400FFFEFEE7000001200000002008000020DC
:1005D4004C0600080800002048000020FEE7000048
:1005E40070B50D4D0D4C641BA4100026A64209D114
:1005F4000B4D0C4C00F018F8641BA4100026A64206
:1006040005D170BD55F8043B98470136EEE755F81F
:10061400043B98470136F2E7440600084406000804
:100624004406000848060008F8B500BFF8BC08BC3A
:100634009E467047F8B500BFF8BC08BC9E4670479C
:04064400B9010008F0
:040648009501000810
:08064C000100000001000000A4
:040000050800059159
:00000001FF
