S0170000646563696D616C20636F756E7465722E737265631E
S11300000C942A000C9447000C9447000C9447006D
S11300100C9447000C9447000C9447000C940C0279
S11300200C9447000C9447000C9447000C94470030
S11300300C9447000C9447000C9447000C94470020
S11300400C9447000C9447000C9447000C94470010
S11300500C94470011241FBECFE5D8E0DEBFCDBF0E
S113006010E0A0E6B0E0EAE2FCE102C005900D92E7
S1130070AE37B107D9F726E0AEE7B0E001C01D9274
S1130080AF3CB207E1F70E94B50D0C94130E0C942B
S11300900000FC010396928381832FEF3FEF3483AA
S11300A02383968385839087878310820895FC0138
S11300B0118610860895CF93DF93EB01488159810F
S11300C04F3F2FEF520721F4FC01A781B0850DC0EB
S11300D0DC01139601C0DF011296ED91FC91139798
S11300E02081318142175307B0F71296ED91FC91AC
S11300F01397FB83EA83D583C483BD83AC831396B0
S1130100DC93CE93129799878887FC0120812F5F17
S11301102083DF91CF910895CF93DF93FC01A085D5
S1130120B185C281D381848195819D838C83C4816F
S1130130D581828193819B838A8311968D919C9131
S11301401297E817F90731F48481958112969C93EC
S11301508E931197118610868C9181508C938C917B
S1130160DF91CF9108951BBC8CE78ABD8BE08EBDD7
S113017089B7806189BF089531E1FC0130833197EB
S113018022E220833197A3E3A083319760833197E0
S1130190708331971082319760E8608331971082C1
S11301A0319762E06083319763E06083319764E064
S11301B06083319765E06083319766E060833197AF
S11301C067E06083319768E06083319769E060831A
S11301D0319760E1608331973083319732E1308326
S11301E0319733E13083319734E13083319735E10E
S11301F03083319736E13083319737E1308331975B
S113020038E13083319739E13083319730E23083FC
S1130210319731E2308331972083319723E2208371
S11302203197408331975083319726E22083319769
S113023027E22083319728E22083319729E2208323
S1130240319720E32083319721E320838697089513
S11302500E94B300A091C606B091C706CD91CDBF50
S1130260DD91DEBFFF91EF91DF91CF91BF91AF910F
S11302709F918F917F916F915F914F913F912F91BA
S11302801F910F91FF90EF90DF90CF90BF90AF90B0
S11302909F908F907F906F905F904F903F902F90A2
S11302A01F900F900FBE0F90089581E008950F9254
S11302B00FB6F8940F921F9211242F923F924F92EF
S11302C05F926F927F928F929F92AF92BF92CF92E2
S11302D0DF92EF92FF920F931F932F933F934F93CD
S11302E05F936F937F938F939F93AF93BF93CF93BA
S11302F0DF93EF93FF93A091C606B091C7060DB6A6
S11303000D920EB60D920E94720AA091C606B0918B
S1130310C706CD91CDBFDD91DEBFFF91EF91DF9197
S1130320CF91BF91AF919F918F917F916F915F9189
S11303304F913F912F911F910F91FF90EF90DF907C
S1130340CF90BF90AF909F908F907F906F905F9071
S11303504F903F902F901F900F900FBE0F900895D5
S11303600F920FB6F8940F921F9211242F923F927E
S11303704F925F926F927F928F929F92AF92BF92B1
S1130380CF92DF92EF92FF920F931F932F933F939D
S11303904F935F936F937F938F939F93AF93BF9389
S11303A0CF93DF93EF93FF93A091C606B091C70656
S11303B00DB60D920EB60D920E946D0881110E9429
S11303C0720AA091C606B091C706CD91CDBFDD914A
S11303D0DEBFFF91EF91DF91CF91BF91AF919F91DC
S11303E08F917F916F915F914F913F912F911F91C9
S11303F00F91FF90EF90DF90CF90BF90AF909F90C0
S11304008F907F906F905F904F903F902F901F90B0
S11304100F900FBE0F9008950E94B0011895EAE85E
S1130420F0E0AEE8B0E0B183A08313821282E6E686
S1130430F6E0F0938900E09388001382128211821F
S1130440108288ED95E013969C938E931297ED930A
S1130450FC9390938500809384009093870080930D
S1130460860080E090E890937F0080937E0008955A
S1130470CF93DF93EC01AAE8B0E001C0DF01ED9176
S1130480FC911197EC17FD07C8F312968D919C917E
S113049013979D01280F391FC217D30749F42A81E6
S11304A03B81820F931F13969C938E931297ED01B9
S11304B08A819B819E01280F391FE217F307C1F43B
S11304C02091880030918900E217F30771F02281AE
S11304D03381820F931F9B838A83ED91FC91119743
S11304E0808191819983888305C03983288302C0E0
S11304F0F983E883CA17DB0711F0CD93DC93DF910E
S1130500CF910895EF92FF920F931F93CF93DF93B0
S11305108C010E9467088091880090918900892B42
S113052011F40E940F0280917E0090917F0080233D
S11305309123892B09F077C00115110549F0C801F1
S113054004960817190718F000E010E001C08C01A8
S11305500115110509F46AC0809186009091870005
S11305608017910708F465C0C0918A00D0918B0070
S1130570EAE8F0E002C0FE01EC018A819B81801769
S1130580910720F4888199810097A9F780918800C8
S113059090918900C817D90709F44EC0E080F18012
S11305A084E0E80EF11C88819981918380832A81FB
S11305B03B81201B310B2930310550F0CE01800FD7
S11305C0911FFC01338322831B830A830E94380218
S11305D02A813B818091860090918700821B930B36
S11305E09093870080938600409184005091850009
S11305F08417950720F4909385008093840080915C
S11306007E0090917F00282B392B3B832A8319820B
S113061018828091820090918300019690938300C8
S1130620809382000BC0E12CF12C08C0E12CF12C4A
S113063005C0E12CF12C02C0E12CF12C0E948709A9
S1130640C701DF91CF911F910F91FF90EF90089513
S11306500F931F93CF93DF93009799F1EC012497A5
S11306604A815B8120917E0030917F00BA01622330
S11306707323672B31F168817981672B11F52095FC
S11306803095242335233B832A830E9467088A817B
S11306909B812091860030918700820F931F909355
S11306A0870080938600CE010E94380280918000EA
S11306B090918100019690938100809380000E9424
S11306C08709DF91CF911F910F910895DC01519615
S11306D02C915197222341F05696ED91FC91579716
S11306E0908184E0891B089580E008950FB6F89402
S11306F00F92FC01828D811102C081E001C080E073
S11307000F900FBE08950FB6F8940F92FC01228D3E
S1130710838D281302C081E001C080E00F900FBEDA
S113072008950F931F93CF93DF93EC01042F1A8D39
S11307304C8D41110CC088819981892B09F042C0EC
S11307408C819D810E946A0C1D821C8242C0011111
S113075017C050E08A819B810E940A0E2C8D8A81E9
S11307609B81820F911D9B838A832C813D818217FB
S1130770930750F1888199819B838A8380E029C003
S113078050E08E819F810E940A0E8C8D90E091959D
S1130790819591092E813F81280F391F3F832E8334
S11307A0488159812417350730F42C813D81820F0B
S11307B0931F9F838E83023049F4112349F0115013
S11307C080E007C080E005C080E003C080E001C095
S11307D080E01F5F1A8FDF91CF911F910F910895D1
S11307E01F93CF93DF93EC010FB6F8940F921E8DF5
S11307F00BC08989882351F0CE0141960E94D80A02
S113080081110E94D20B115011169CF38FEF8E8F21
S11308100F900FBE0FB6F8940F921D8D0BC08885F4
S1130820882351F0CE0108960E94D80A81110E94B3
S1130830D20B115011169CF38FEF8D8F0F900FBEBA
S1130840DF91CF911F9108950F931F93CF93DF935F
S1130850FC01362F892B09F44DC0238D222309F482
S11308604BC0022F10E08FEF9FEFB8010E94F60DEE
S1130870448D842F90E06817790708F43FC0EF0196
S11308800FB6F8940F9260817181FB01249FE00DF3
S1130890F11D1124FD83EC831A8E7B836A8301503E
S11308A01109809FA001819F500D909F500D11242C
S11308B0CB01840F951F9F838E838FEF8D8F8E8F37
S11308C031110CC08885882389F0CE0108960E94D6
S11308D0D80A882359F00E94570108C0CE0108960F
S11308E00E944900CE0141960E9449000F900FBE1C
S11308F081E005C080E003C080E001C080E0DF91BA
S1130900CF911F910F9108950F931F93F8016111D7
S113091003C01183008302C051834083838F648F9B
S113092061E0CF010E9424041F910F910895DF928A
S1130930EF92FF920F931F93CF93DF93382FE62FFD
S1130940882329F1682F70E08FEF9FEF0E94F60D46
S11309508E2F90E068177907E8F03E9FC0011124BC
S1130960813E2FEF9207C8F4D42EDE2FC32F4F966B
S11309700E9482027C01009791F08C012D2DAC0124
S1130980415E5F4F6D2F8C2F0E94840408C0E12CC0
S1130990F12C05C0E12CF12C02C0E12CF12CC70193
S11309A0DF91CF911F910F91FF90EF90DF90089509
S11309B0CF92DF92EF92FF920F931F93CF93DF9327
S11309C000D000D01F92CDB7DEB78C017B015D83D0
S11309D04C83C22ED12C0FB6F8940F92F801928D4D
S11309E0838D981718F0F2E0CF1219C04C2DB7017F
S11309F0C8010E949103F8019189992349F0C80123
S1130A0041960E94D80A882331F00E94570103C0FE
S1130A1081110E9457010F900FBE81E04DC08C815F
S1130A209D81892B21F40F900FBE80E045C0D11029
S1130A3006C0CE0101960E94950BDD24D3940F903D
S1130A400FBE0E9467080FB6F8940F92F801858DC7
S1130A508F3F09F4158EF801868D8F3F09F4168EA9
S1130A600F900FBEBE016C5F7F4FCE0101960E94B6
S1130A70A00B81111BC0C8010E948303882381F04D
S1130A806C817D81C80108960E94C60AC8010E9433
S1130A90F0030E94870981119ECF0E9457019BCFCA
S1130AA0C8010E94F0030E94870995CFC8010E94E3
S1130AB0F0030E94870980E00F900F900F900F9031
S1130AC00F90DF91CF911F910F91FF90EF90DF90E6
S1130AD0CF900895EF92FF920F931F93CF93DF93DC
S1130AE000D000D01F92CDB7DEB78C017D836C831C
S1130AF0E12CF12C0FB6F8940F92F801828D882323
S1130B00D1F08150828F80819181892B29F40E94B8
S1130B10400DF80195838483F8018085882339F09A
S1130B20C80108960E94D80A81110E9457010F90AB
S1130B300FBE81E074C08C819D81892B21F40F90BC
S1130B400FBE80E06CC0F11006C0CE0101960E9479
S1130B50950BFF24F3940F900FBE0E9467080FB605
S1130B60F8940F92F801858D8F3F09F4158EF801E2
S1130B70868D8F3F09F4168E0F900FBEBE016C5FF9
S1130B807F4FCE0101960E94A00B81112AC0C8019B
S1130B900E9476038823F9F0F80180819181892BE2
S1130BA051F40FB6F8940F92848195810E94D60B6C
S1130BB0E82E0F900FBE6C817D81C80141960E9482
S1130BC0C60AC8010E94F0030E948709811192CFCE
S1130BD00E9457018FCFC8010E94F0030E94870929
S1130BE089CFC8010E94F0030E948709C8010E94AE
S1130BF07603882309F47ECFEE2081F00FB6F894B3
S1130C000F92C8010E946603682FF80184819581C0
S1130C100E94CD0C0F900FBE80E001C080E00F90C9
S1130C200F900F900F900F90DF91CF911F910F9124
S1130C30FF90EF900895E0918E06F0918F068081E9
S1130C40811107C08FEF9FEF90936E0680936D061E
S1130C500895E0918E06F0918F060580F681E02DCF
S1130C608081918190936E0680936D060895CF9351
S1130C70DF93EC018F89988D0E942803CE010E9496
S1130C802803DF91CF9108956F927F928F929F9264
S1130C90AF92BF92CF92DF92EF920F931F93CF93B5
S1130CA0DF93CDB7DEB74C01D50157968D919C915A
S1130CB05897215031093C01620E731E611571056C
S1130CC089F416C0822F90E0FB01E80FF91F3081F0
S1130CD0D501A80FB91F59963C938081882329F028
S1130CE02F5F01C020E0283068F3F50110A203C093
S1130CF0D50159961C92B3E0BE1520F40F2EF3E0F3
S1130D00EF2EF02DF501E68AE1A212A2C5010296AA
S1130D100E945700C5010C960E945700D5011996F0
S1130D20BC92AE92189784E090E08E1991091D96BA
S1130D309C938E931C975396BC92AE92529784E0E8
S1130D40F501B396DF011D928A95E9F7F50117A223
S1130D50A801B401C3010E94BC00D5018D939C93EA
S1130D60C114D10419F0F601B182A082DF91CF91B0
S1130D701F910F91EF90DF90CF90BF90AF909F9015
S1130D808F907F906F900895CF93C0E010C08C2F08
S1130D9090E09C01220F331F220F331F220F331FB9
S1130DA0820F931F8E55994F0E944900CF5FC43024
S1130DB070F389E996E00E94490080E996E00E9478
S1130DC0490083E896E00E9449008AE796E00E9481
S1130DD0490089E996E090938F0680938E0680E916
S1130DE096E090938D0680938C06CF910895CF93CF
S1130DF0DF93EC010FB6F8940F92809178068F5F21
S1130E00809378068091C6069091C706892B59F481
S1130E10D093C706C093C60680917806813099F4B2
S1130E200E94C40610C08091740681110CC0E09128
S1130E30C606F091C70696898E89891720F0D0934B
S1130E40C706C093C60680916F068F5F80936F06B6
S1130E508E8990917506981710F48093750690E02A
S1130E60FC01EE0FFF1FEE0FFF1FEE0FFF1F8E0F93
S1130E709F1FFC01EE55F94F0180F281E02DFD83A7
S1130E80EC83848195819F838E83A481B581CE0177
S1130E90029613969C938E93129795838483EE897E
S1130EA0F0E0CF01880F991F880F991F880F991FB1
S1130EB0E80FF91FEE55F94FFB87EA8780818F5FB2
S1130EC080830F900FBE80917406882351F0E091C7
S1130ED0C606F091C70696898E89981710F40E9469
S1130EE05701DF91CF910895CF93DF931CC00FB6C4
S1130EF0F8940F92E0917F06F0918006C681D78125
S1130F00CE0102960E948C008091780681508093D5
S1130F107806809179068150809379060F900FBEF0
S1130F20CE010E943706809179068111E0CFDF91CE
S1130F30CF9108950E9474078091A2068230D0F365
S1130F400E945701F7CF0F931F93CF93DF93EC01C8
S1130F5000917606109177068091C6069091C70697
S1130F6002960E948C00C00FD11FE091C606F0913A
S1130F70C706D383C283C017D10768F46091C6063D
S1130F807091C70680918C0690918D066E5F7F4F9D
S1130F900E945B0017C06091C6067091C7068091DD
S1130FA08E0690918F066E5F7F4F0E945B0080914A
S1130FB06D0690916E06C817D90720F4D0936E067B
S1130FC0C0936D06DF91CF911F910F9108952F92D9
S1130FD03F924F925F926F927F928F929F92AF92C5
S1130FE0BF92CF92DF92EF92FF920F931F93CF9312
S1130FF0DF933C011B015A012901CA010E948202AC
S11310006C01892B71F088E290E00E948202EC016D
S1131010892B19F0D88ECF8A06C0C6010E942803F6
S113102002C0C0E0D0E0209791F0950140E050E08C
S1131030812C912C5E016701E02E8201B101C30174
S11310400E944406CE010E94F70681E001C08FEFA2
S1131050DF91CF911F910F91FF90EF90DF90CF9090
S1131060BF90AF909F908F907F906F905F904F90C4
S11310703F902F900895EF92FF920F930F2EFBE66F
S1131080EF2EF6E0FF2EF02D00E020E030E045E505
S113109050E061E670E08AE997E00E94E70781305A
S11310A081F4F8948FEF9FEF90936E0680936D0612
S11310B081E08093740610927706109276060E945F
S11310C02801809160000F91FF90EF900895809126
S11310D06A068F5F80936A0608950F931F93CF93D8
S11310E0DF9380916A06811101C1C0917606D09187
S11310F077068E010F5F1F4F1093770600937606D5
S113110001151105B9F480918E0690918F062091F6
S11311108C0630918D0630938F0620938E06909323
S11311208D0680938C06809170068F5F8093700685
S11311300E941B0680916D0690916E060817190790
S113114020F480E0B8C081E001C080E0E0918E0628
S1131150F0918F069081911107C02FEF3FEF3093EC
S11311606E0620936D06A7C0E0918E06F0918F065F
S11311700580F681E02D0680F781E02D2281338100
S11311800217130728F430936E0620936D0693C05C
S1131190A285B3852481358146815781E9015D8328
S11311A04C832681378144815581E9015B834A83DD
S11311B011962D913C911297AF014E5F5F4F24170A
S11311C0350731F42681378112963C932E9311977B
S11311D0138612869C9191509C93A489B58910978B
S11311E019F12685378560897189E9017D836C83CE
S11311F02089318966857785E9017B836A83119625
S11312006D917C9112979F01245F3F4F6217730782
S113121031F42089318912963C932E931197158AC3
S1131220148A9C9191509C932689909175069217EB
S113123010F42093750630E0D901AA0FBB1FAA0F42
S1131240BB1FAA0FBB1F2A0F3B1FD901AE55B94FB5
S113125011960D90BC91A02DB583A48314962D9165
S11312603C9115973783268314962D913C911597BD
S1131270E9015B834A8315965C934E931497A68980
S1131280B0E09D01220F331F220F331F220F331FA3
S1131290A20FB31FAE55B94FB387A2879C919F5F2E
S11312A09C932689E091C606F091C7069689291772
S11312B008F049CF4BCFE091C606F091C7062689C6
S11312C030E0F901EE0FFF1FEE0FFF1FEE0FFF1FBF
S11312D02E0F3F1FF901EE55F94F9081923008F01F
S11312E081E09091710691110CC00CC0809172063E
S11312F0909173060196909373068093720680E032
S113130001C081E0DF91CF911F910F910895CF9398
S1131310DF930FB6F8940F9280916A068150809300
S11313206A0680916A068111BFC080917806811196
S113133096C0BDC0E0918806F09189060680F781C9
S1131340E02DA489B589C685D785808991899D8337
S11313508C83C089D189868597859B838A831196DE
S11313602D913C911297CF010C962817390731F42F
S11313708089918912969C938E931197158A148A69
S11313808C9181508C93A285B385C481D58186814B
S113139097819D838C83C681D781848195819B832A
S11313A08A8311968D919C9112979F012E5F3F4FD6
S11313B08217930731F48681978112969C938E93BA
S11313C01197138612868C9181508C938689909103
S11313D07506981710F48093750690E0DC01AA0F47
S11313E0BB1FAA0FBB1FAA0FBB1F8A0F9B1FDC01C9
S11313F0AE55B94F11960D90BC91A02DB583A48321
S113140014968D919C911597978386831496CD910C
S1131410DC9115973B832A8315963C932E9314975E
S1131420A689B0E0CD01880F991F880F991F880FF6
S1131430991FA80FB91FAE55B94FB387A2878C91D6
S11314408F5F8C939689A091C606B091C706569675
S11314508C91981730F081E08093710602C0E0E02F
S1131460F0E080918306811165CFEF2B11F00E948B
S11314701B06C0917206D0917306209769F00E94F2
S11314806D08882319F081E0809371062197B9F7DC
S1131490109273061092720680917106882331F0BF
S11314A00E94570181E003C080E001C080E00F90FA
S11314B00FBEDF91CF910895CF93DF93EC01892B79
S11314C049F00E94670860E0CE010E94A3070E94D1
S11314D0870901C080E0811102C00E945701DF9199
S11314E0CF91089580916A06882321F081E080934A
S11314F071060895109271062091750601C021505D
S1131500822F90E0FC01EE0FFF1FEE0FFF1FEE0F86
S1131510FF1FE80FF91FEE55F94F3081332379F39C
S1131520AC01440F551F440F551F440F551F480F5E
S1131530591FDF010180F281E02D0280F381E02D4B
S11315401296FC93EE9311974B55594FE417F507F8
S113155029F442815381FD0152834183FC01EE0F42
S1131560FF1FEE0FFF1FEE0FFF1F8E0F9F1FFC01CB
S1131570EE55F94F0180F281E02D86819781909399
S1131580C7068093C606209375060895CF93DF930C
S1131590EB016091C6067091C706645F7F4F0E949D
S11315A05B0061E0CE010E94A307DF91CF91089513
S11315B0CF93DF93DC011596ED91FC91169706808D
S11315C0F781E02DA489B589C685D785808991895D
S11315D09D838C83C089D189868597859B838A83E3
S11315E011968D919C9112979F01245F3F4F821712
S11315F0930731F48089918912969C938E93119765
S1131600158A148A8C9181508C9380916A06811179
S113161060C0A285B385C481D581868197819D836D
S11316208C83C681D781848195819B838A8311961B
S11316308D919C9112979F012E5F3F4F82179307C4
S113164031F48681978112969C938E931197138619
S113165012868C9181508C93868990917506981787
S113166010F48093750690E0DC01AA0FBB1FAA0F4B
S1131670BB1FAA0FBB1F8A0F9B1FDC01AE55B94FBE
S113168011960D90BC91A02DB583A48314968D91D1
S11316909C911597978386831496CD91DC91159729
S11316A03B832A8315963C932E931497A689B0E026
S11316B0CD01880F991F880F991F880F991FA80FB4
S11316C0B91FAE55B94FB387A2878C918F5F8C93A6
S11316D01CC043E856E0DA011196CD91DC911297D3
S11316E0D787C6878C819D81918B808B8C819D81CE
S11316F0DC0113963C932E9312973D832C83558BD8
S1131700448BDA018C918F5F8C939689E091C606A5
S1131710F091C7068689891720F481E080937106C9
S113172001C080E0DF91CF91089520917006FC0103
S113173020832091760630917706328321830895A1
S1131740CF93DF930FB6F8940F92409176065091A1
S11317507706EC0129813A81DA01A21BB30BF881E7
S1131760E0917006FE1741F04217530728F0FB0181
S11317701182108281E011C0EB0128813981A21706
S1131780B30740F42A1B3B0B398328830E94950B33
S113179080E003C01982188281E00F900FBEDF91B0
S11317A0CF91089581E08093710608950F931F935C
S11317B0CF93DF93FC01892B09F484C02689A0917F
S11317C0C606B091C70656968C91281708F070C0CB
S11317D084859585992364F0A091C606B091C706C7
S11317E056963C9184E090E0831B91099587848709
S11317F08285938530E0A901440F551F440F551F7E
S1131800440F551F240F351F2E55394F8217930748
S113181009F045C0EF018F010E5F1F4FC8010E9400
S11318208C00E091C606F091C70686898E8B909154
S11318307506981710F48093750690E0FC01EE0F7E
S1131840FF1FEE0FFF1FEE0FFF1F8E0F9F1FFC01E8
S1131850EE55F94F0180F281E02DFD83EC83848104
S113186095819F838E83A481B58113961C930E93D7
S11318701297158304838E8990E0FC01EE0FFF1FFD
S1131880EE0FFF1FEE0FFF1FE80FF91FEE55F94F84
S1131890FB87EA8780818F5F808381E016C0A091F7
S11318A0C606B091C70656968C91868B81E00DC012
S11318B091A1E091C606F091C7068689981720F099
S11318C080E003C080E001C081E0DF91CF911F91EF
S11318D00F9108950F931F93CF93DF93FC01892BEE
S11318E009F451C082A1815082A3268991A12917AC
S11318F009F44BC081114BC0EF018F010E5F1F4FE4
S1131900C8010E948C0089A18E8B24E030E0281B42
S113191031093D872C8790917506981710F48093B0
S1131920750690E0FC01EE0FFF1FEE0FFF1FEE0F98
S1131930FF1F8E0F9F1FFC01EE55F94F0180F281AE
S1131940E02DFD83EC83848195819F838E83A48124
S1131950B58113961C930E93129715830483EE8915
S1131960F0E0CF01880F991F880F991F880F991FE6
S1131970E80FF91FEE55F94FFB87EA8780818F5FE7
S1131980808381E005C080E003C080E001C080E086
S1131990DF91CF911F910F9108950F931F93CF93D0
S11319A0DF93FC01892B09F466C091A1961708F412
S11319B0962F8689981709F45EC022A1213009F078
S11319C05AC0968B24853585332334F024E030E0E7
S11319D0291B3109358724872285338590E0AC01A2
S11319E0440F551F440F551F440F551F840F951F57
S11319F08E55994F28173907F1F5EF018F010E5FC6
S1131A001F4FC8010E948C008E899091750698170B
S1131A1010F48093750690E0FC01EE0FFF1FEE0FAB
S1131A20FF1FEE0FFF1F8E0F9F1FFC01EE55F94F96
S1131A300180F281E02DFD83EC83848195819F8375
S1131A408E83A481B58113961C930E9312971583EC
S1131A5004838E8990E0FC01EE0FFF1FEE0FFF1F41
S1131A60EE0FFF1FE80FF91FEE55F94FFB87EA87CA
S1131A7080818F5F8083DF91CF911F910F910895B3
S1131A808091C6069091C706892B39F0E091C6066D
S1131A90F091C70682A18F5F82A38091C6069091C0
S1131AA0C70608956AE070E08091C9069091CA065D
S1131AB00E946A05C89B13C08AE090E00E945C0AF9
S1131AC0C89B22C0C899FECF8091C806893019F4FA
S1131AD01092C80619C08F5F8093C80615C0C99BB1
S1131AE013C08AE090E00E945C0AC99B0DC0C999AA
S1131AF0FECF8091C806811104C089E08093C80696
S1131B0003C081508093C80620E040E050E060E0CC
S1131B1070E08091C9069091CA060E94D80481E0C1
S1131B2090E00E945C0ABECF6AE070E08091C90632
S1131B309091CA060E946A05C091C80620E040E060
S1131B4050E060E070E08091C9069091CA060E945E
S1131B50D804EC2FF0E0ED58FF4F8081809585BBD1
S1131B6081E090E00E945C0ADFCF8AB38C7F8ABB5D
S1131B7084B38F6784BB85B38F6785BB43E060E024
S1131B8081E00E9497049093CA068093C9060F2EA1
S1131B90FDECEF2EF6E0FF2EF02D01E020E030E02A
S1131BA045E550E066E670E082E59DE00E94E707C7
S1131BB00F2EFBECEF2EF6E0FF2EF02D20E030E0B0
S1131BC045E550E06CE670E084E99DE00E94E7079B
S1131BD020E040E050E060E070E08091C906909120
S1131BE0CA060E94D8040E943B08FFCFAA1BBB1B55
S1131BF051E107C0AA1FBB1FA617B70710F0A61B09
S1131C00B70B881F991F5A95A9F780959095BC0129
S1131C10CD010895FB01DC0102C001900D924150F9
S10D1C205040D8F70895F894FFCF60
S1131C2A0349444C45006669727374007365636FB3
S1111C3A6E64003F065B4F666D7D077F6F0092
S9030000FC
