S015000052544F535F4C61625F7461736B2E7372656347
S11300000C942A000C9447000C9447000C9447006D
S11300100C9447000C9447000C9447000C940C0279
S11300200C9447000C9447000C9447000C94470030
S11300300C9447000C9447000C9447000C94470020
S11300400C9447000C9447000C9447000C94470010
S11300500C94470011241FBECFE5D8E0DEBFCDBF0E
S113006010E0A0E6B0E0EAE7F1E102C005900D92ED
S1130070AA37B107D9F726E0AAE7B0E001C01D927C
S1130080AA3CB207E1F70E9481080C94BB080C94C7
S11300900000FC010396928381832FEF3FEF3483AA
S11300A02383968385839087878310820895FC0138
S11300B0118610860895CF93DF93EB01488159810F
S11300C04F3F2FEF520721F4FC01A781B0850DC0EB
S11300D0DC01139601C0DF011296ED91FC91139798
S11300E02081318142175307B0F71296ED91FC91AC
S11300F01397FB83EA83D583C483BD83AC831396B0
S1130100DC93CE93129799878887FC0120812F5F17
S11301102083DF91CF910895CF93DF93FC01A085D5
S1130120B185C281D381848195819D838C83C4816F
S1130130D581828193819B838A8311968D919C9131
S11301401297E817F90731F48481958112969C93EC
S11301508E931197118610868C9181508C938C917B
S1130160DF91CF9108951BBC8CE78ABD8BE08EBDD7
S113017089B7806189BF089531E1FC0130833197EB
S113018022E220833197A3E3A083319760833197E0
S1130190708331971082319760E8608331971082C1
S11301A0319762E06083319763E06083319764E064
S11301B06083319765E06083319766E060833197AF
S11301C067E06083319768E06083319769E060831A
S11301D0319760E1608331973083319732E1308326
S11301E0319733E13083319734E13083319735E10E
S11301F03083319736E13083319737E1308331975B
S113020038E13083319739E13083319730E23083FC
S1130210319731E2308331972083319723E2208371
S11302203197408331975083319726E22083319769
S113023027E22083319728E22083319729E2208323
S1130240319720E32083319721E320838697089513
S11302500E94B300A091C206B091C306CD91CDBF58
S1130260DD91DEBFFF91EF91DF91CF91BF91AF910F
S11302709F918F917F916F915F914F913F912F91BA
S11302801F910F91FF90EF90DF90CF90BF90AF90B0
S11302909F908F907F906F905F904F903F902F90A2
S11302A01F900F900FBE0F90089581E008950F9254
S11302B00FB6F8940F921F9211242F923F924F92EF
S11302C05F926F927F928F929F92AF92BF92CF92E2
S11302D0DF92EF92FF920F931F932F933F934F93CD
S11302E05F936F937F938F939F93AF93BF93CF93BA
S11302F0DF93EF93FF93A091C206B091C3060DB6AE
S11303000D920EB60D920E94F107A091C206B09113
S1130310C306CD91CDBFDD91DEBFFF91EF91DF919B
S1130320CF91BF91AF919F918F917F916F915F9189
S11303304F913F912F911F910F91FF90EF90DF907C
S1130340CF90BF90AF909F908F907F906F905F9071
S11303504F903F902F901F900F900FBE0F900895D5
S11303600F920FB6F8940F921F9211242F923F927E
S11303704F925F926F927F928F929F92AF92BF92B1
S1130380CF92DF92EF92FF920F931F932F933F939D
S11303904F935F936F937F938F939F93AF93BF9389
S11303A0CF93DF93EF93FF93A091C206B091C3065E
S11303B00DB60D920EB60D920E94C00581110E94D9
S11303C0F107A091C206B091C306CD91CDBFDD91D6
S11303D0DEBFFF91EF91DF91CF91BF91AF919F91DC
S11303E08F917F916F915F914F913F912F911F91C9
S11303F00F91FF90EF90DF90CF90BF90AF909F90C0
S11304008F907F906F905F904F903F902F901F90B0
S11304100F900FBE0F9008950E94B0011895E6E862
S1130420F0E0AAE8B0E0B183A08313821282E2E68E
S1130430F6E0F0938500E093840013821282118227
S1130440108288ED95E013969C938E931297ED930A
S1130450FC93909381008093800090938300809319
S1130460820080E090E890937B0080937A00089566
S1130470CF93DF93EC01A6E8B0E001C0DF01ED917A
S1130480FC911197EC17FD07C8F312968D919C917E
S113049013979D01280F391FC217D30749F42A81E6
S11304A03B81820F931F13969C938E931297ED01B9
S11304B08A819B819E01280F391FE217F307C1F43B
S11304C02091840030918500E217F30771F02281B6
S11304D03381820F931F9B838A83ED91FC91119743
S11304E0808191819983888305C03983288302C0E0
S11304F0F983E883CA17DB0711F0CD93DC93DF910E
S1130500CF910895EF92FF920F931F93CF93DF93B0
S11305108C010E94B0058091840090918500892B04
S113052011F40E940F0280917A0090917B00802345
S11305309123892B09F077C00115110549F0C801F1
S113054004960817190718F000E010E001C08C01A8
S11305500115110509F46AC080918200909183000D
S11305608017910708F465C0C0918600D091870078
S1130570E6E8F0E002C0FE01EC018A819B8180176D
S1130580910720F4888199810097A9F780918400CC
S113059090918500C817D90709F44EC0E080F18016
S11305A084E0E80EF11C88819981918380832A81FB
S11305B03B81201B310B2930310550F0CE01800FD7
S11305C0911FFC01338322831B830A830E94380218
S11305D02A813B818091820090918300821B930B3E
S11305E09093830080938200409180005091810019
S11305F08417950720F49093810080938000809164
S11306007A0090917B00282B392B3B832A83198213
S1130610188280917E0090917F00019690937F00D4
S113062080937E000BC0E12CF12C08C0E12CF12C4E
S113063005C0E12CF12C02C0E12CF12C0E94DA0659
S1130640C701DF91CF911F910F91FF90EF90089513
S11306500F931F93CF93DF93009799F1EC012497A5
S11306604A815B8120917A0030917B00BA01622338
S11306707323672B31F168817981672B11F52095FC
S11306803095242335233B832A830E94B0058A8135
S11306909B812091820030918300820F931F90935D
S11306A0830080938200CE010E94380280917C00F6
S11306B090917D00019690937D0080937C000E9430
S11306C0DA06DF91CF911F910F910895E0918A0688
S11306D0F0918B068081811107C08FEF9FEF90937B
S11306E06A06809369060895E0918A06F0918B0664
S11306F00580F681E02D8081918190936A06809334
S113070069060895CF93DF93EC018F89988D0E9439
S11307102803CE010E942803DF91CF9108956F92A0
S11307207F928F929F92AF92BF92CF92DF92EF927D
S11307300F931F93CF93DF93CDB7DEB74C01D50151
S113074057968D919C915897215031093C01620E26
S1130750731E6115710589F416C0822F90E0FB01A8
S1130760E80FF91F3081D501A80FB91F59963C93A2
S11307708081882329F02F5F01C020E0283068F3AE
S1130780F50110A203C0D50159961C92B3E0BE1521
S113079020F40F2EF3E0EF2EF02DF501E68AC501CB
S11307A002960E945700C5010C960E945700D5017D
S11307B01996BC92AE92189784E090E08E19910934
S11307C01D969C938E931C975396BC92AE9252970F
S11307D084E0F501B196DF011D928A95E9F7F501F0
S11307E015A2A801B401C3010E94BC00D5018D93D8
S11307F09C93C114D10419F0F601B182A082DF9157
S1130800CF911F910F91EF90DF90CF90BF90AF9059
S11308109F908F907F906F900895CF93C0E010C009
S11308208C2F90E09C01220F331F220F331F220FC5
S1130830331F820F931F8256994F0E944900CF5F46
S1130840C43070F385E996E00E9449008CE896E094
S11308500E9449008FE796E00E94490086E796E0EF
S11308600E94490085E996E090938B0680938A065E
S11308708CE896E09093890680938806CF9108953A
S1130880CF93DF93EC010FB6F8940F928091740626
S11308908F5F809374068091C2069091C306892B62
S11308A059F4D093C306C093C20680917406813074
S11308B099F40E940D0410C08091700681110CC03F
S11308C0E091C206F091C30696898E89891720F0BB
S11308D0D093C306C093C20680916B068F5F80934A
S11308E06B068E8990917106981710F480937106A7
S11308F090E0FC01EE0FFF1FEE0FFF1FEE0FFF1F36
S11309008E0F9F1FFC01E256F94F0180F281E02D0A
S1130910FD83EC83848195819F838E83A481B5813B
S1130920CE01029613969C938E931297958384839B
S1130930EE89F0E0CF01880F991F880F991F880F67
S1130940991FE80FF91FE256F94FFB87EA87808168
S11309508F5F80830F900FBE80917006882351F0C3
S1130960E091C206F091C30696898E89981710F417
S11309700E945701DF91CF910895CF93DF931CC05C
S11309800FB6F8940F92E0917B06F0917C06C68135
S1130990D781CE0102960E948C008091740681500A
S11309A080937406809175068150809375060F902C
S11309B00FBECE010E948203809175068111E0CFA3
S11309C0DF91CF9108950E94BD0480919E068230EC
S11309D0D0F30E945701F7CF0F931F93CF93DF9368
S11309E0EC0100917206109173068091C2069091F9
S11309F0C30602960E948C00C00FD11FE091C2066C
S1130A00F091C306D383C283C017D10768F4609101
S1130A10C2067091C30680918806909189066E5F24
S1130A207F4F0E945B0017C06091C2067091C3069D
S1130A3080918A0690918B066E5F7F4F0E945B00C7
S1130A408091690690916A06C817D90720F4D0935B
S1130A506A06C0936906DF91CF911F910F910895A3
S1130A602F923F924F925F926F927F928F929F92BA
S1130A70AF92BF92CF92DF92EF92FF920F931F93A8
S1130A80CF93DF933C011B015A012901CA010E9443
S1130A9082026C01892B71F086E290E00E9482024E
S1130AA0EC01892B19F0D88ECF8A06C0C6010E94AA
S1130AB0280302C0C0E0D0E0209791F0950140E007
S1130AC050E0812C912C5E016701E02E8201B1017E
S1130AD0C3010E948F03CE010E94400481E001C043
S1130AE08FEFDF91CF911F910F91FF90EF90DF90E7
S1130AF0CF90BF90AF909F908F907F906F905F90BA
S1130B004F903F902F900895EF92FF920F930F2EE6
S1130B10F7E6EF2EF6E0FF2EF02D00E020E030E0C7
S1130B2045E550E061E670E083EE94E00E94300514
S1130B30813081F4F8948FEF9FEF90936A0680934D
S1130B40690681E080937006109273061092720613
S1130B500E942801809160000F91FF90EF9008950A
S1130B60809166068F5F8093660608950FB6F894A9
S1130B700F9280917206909173060F900FBE0895A4
S1130B800F931F93CF93DF9380916606811101C168
S1130B90C0917206D09173068E010F5F1F4F1093A0
S1130BA073060093720601151105B9F480918A0643
S1130BB090918B06209188063091890630938B069C
S1130BC020938A06909389068093880680916C0608
S1130BD08F5F80936C060E946603809169069091F2
S1130BE06A060817190720F480E0B8C081E001C044
S1130BF080E0E0918A06F0918B069081911107C004
S1130C002FEF3FEF30936A0620936906A7C0E09167
S1130C108A06F0918B060580F681E02D0680F78127
S1130C20E02D228133810217130728F430936A06DA
S1130C302093690693C0A285B385248135814681BA
S1130C405781E9015D834C83268137814481558135
S1130C50E9015B834A8311962D913C911297AF0170
S1130C604E5F5F4F2417350731F426813781129682
S1130C703C932E931197138612869C9191509C93CA
S1130C80A489B589109719F12685378560897189FA
S1130C90E9017D836C832089318966857785E90143
S1130CA07B836A8311966D917C9112979F01245FD7
S1130CB03F4F6217730731F42089318912963C93B0
S1130CC02E931197158A148A9C9191509C9326898E
S1130CD090917106921710F42093710630E0D901B7
S1130CE0AA0FBB1FAA0FBB1FAA0FBB1F2A0F3B1FB4
S1130CF0D901A256B94F11960D90BC91A02DB58380
S1130D00A48314962D913C911597378326831496CA
S1130D102D913C911597E9015B834A8315965C9369
S1130D204E931497A689B0E09D01220F331F220F22
S1130D30331F220F331FA20FB31FA256B94FB3871D
S1130D40A2879C919F5F9C932689E091C206F091B3
S1130D50C3069689291708F049CF4BCFE091C20604
S1130D60F091C306268930E0F901EE0FFF1FEE0F64
S1130D70FF1FEE0FFF1F2E0F3F1FF901E256F94F21
S1130D809081923008F081E090916D0691110CC031
S1130D900CC080916E0690916F06019690936F0639
S1130DA080936E0680E001C081E0DF91CF911F91B6
S1130DB00F910895CF93DF930FB6F8940F9280911B
S1130DC06606815080936606809166068111BFC0D5
S1130DD080917406811196C0BDC0E0918406F091A3
S1130DE085060680F781E02DA489B589C685D78557
S1130DF0808991899D838C83C089D18986859785D3
S1130E009B838A8311962D913C911297CF010C9666
S1130E102817390731F48089918912969C938E930F
S1130E201197158A148A8C9181508C93A285B3856D
S1130E30C481D581868197819D838C83C681D78126
S1130E40848195819B838A8311968D919C911297BD
S1130E509F012E5F3F4F8217930731F4868197815C
S1130E6012969C938E931197138612868C918150BF
S1130E708C93868990917106981710F4809371066B
S1130E8090E0DC01AA0FBB1FAA0FBB1FAA0FBB1F58
S1130E908A0F9B1FDC01A256B94F11960D90BC918D
S1130EA0A02DB583A48314968D919C911597978357
S1130EB086831496CD91DC9115973B832A831596EE
S1130EC03C932E931497A689B0E0CD01880F991F07
S1130ED0880F991F880F991FA80FB91FA256B94FE1
S1130EE0B387A2878C918F5F8C939689A091C20659
S1130EF0B091C30656968C91981730F081E0809398
S1130F006D0602C0E0E0F0E080917F06811165CFBC
S1130F10EF2B11F00E946603C0916E06D0916F060C
S1130F20209769F00E94C005882319F081E080931E
S1130F306D062197B9F710926F0610926E06809194
S1130F406D06882331F00E94570181E003C080E0E0
S1130F5001C080E00F900FBEDF91CF9108950F93F1
S1130F601F93CF93DF938C01EB010E94B005409156
S1130F70720650917306F80120813181C9018C0FEA
S1130F809D1F4217530740F48217930768F44817CC
S1130F90590760F0C0E00FC08217930748F0481764
S1130FA0590740F0C0E007C0C0E005C0C1E003C07D
S1130FB0C1E001C0C1E0F80191838083CC2329F012
S1130FC060E0841B950B0E94EC040E94DA068111F8
S1130FD002C00E9457018C2FDF91CF911F910F9176
S1130FE0089580916606882321F081E080936D0640
S1130FF0089510926D062091710601C02150822F30
S113100090E0FC01EE0FFF1FEE0FFF1FEE0FFF1F1E
S1131010E80FF91FE256F94F3081332379F3AC011D
S1131020440F551F440F551F440F551F480F591F98
S1131030DF010180F281E02D0280F381E02D129620
S1131040FC93EE9311974F55594FE417F50729F484
S113105042815381FD0152834183FC01EE0FFF1F46
S1131060EE0FFF1FEE0FFF1F8E0F9F1FFC01E256B6
S1131070F94F0180F281E02D868197819093C30618
S11310808093C206209371060895CF93DF9300D016
S1131090CDB7DEB70E94B6059A83898362E370E018
S11310A0CE0101960E94AF079BB381E089278BBBD9
S11310B0F5CFCF93DF9300D0CDB7DEB70E94B6054E
S11310C09A83898364E670E0CE0101960E94AF079B
S11310D09BB382E089278BBBF5CFCF93DF9300D0FE
S11310E0CDB7DEB70E94B6059A83898368EC70E0B9
S11310F0CE0101960E94AF079BB384E089278BBB86
S1131100F5CF8AB387608ABB8BB3887F8BBB0F2EE6
S1131110F8ECEF2EF6E0FF2EF02D01E020E030E0B9
S113112045E550E066E670E085E498E00E9430050D
S11311300F2EF6ECEF2EF6E0FF2EF02D20E030E03F
S113114045E550E06CE670E089E598E00E943005E2
S11311500F2EF4ECEF2EF6E0FF2EF02D20E030E021
S113116045E550E063E770E08DE698E00E943005C5
S10D11700E948405FFCFF894FFCF1E
S113117A0349444C45006669727374007365636F6E
S10D118A6E6400746869726400006A
S9030000FC
